{
  "contractName": "Funder",
  "abi": [
    {
      "stateMutability": "payable",
      "type": "receive",
      "payable": true
    },
    {
      "inputs": [],
      "name": "transfer",
      "outputs": [],
      "stateMutability": "payable",
      "type": "function",
      "payable": true
    },
    {
      "inputs": [
        {
          "internalType": "uint256",
          "name": "withdra",
          "type": "uint256"
        }
      ],
      "name": "withdraw",
      "outputs": [],
      "stateMutability": "nonpayable",
      "type": "function"
    }
  ],
  "bytecode": "0x608060405234801561001057600080fd5b506102e2806100206000396000f3fe60806040526004361061002d5760003560e01c80632e1a7d4d146100395780638a4068dd1461006257610034565b3661003457005b600080fd5b34801561004557600080fd5b50610060600480360381019061005b91906101e8565b61006c565b005b61006a610156565b005b6000803373ffffffffffffffffffffffffffffffffffffffff1673ffffffffffffffffffffffffffffffffffffffff168152602001908152602001600020548111156100b757600080fd5b806000803373ffffffffffffffffffffffffffffffffffffffff1673ffffffffffffffffffffffffffffffffffffffff16815260200190815260200160002060008282546101059190610244565b925050819055503373ffffffffffffffffffffffffffffffffffffffff166108fc829081150290604051600060405180830381858888f19350505050158015610152573d6000803e3d6000fd5b5050565b346000803373ffffffffffffffffffffffffffffffffffffffff1673ffffffffffffffffffffffffffffffffffffffff16815260200190815260200160002060008282546101a49190610278565b92505081905550565b600080fd5b6000819050919050565b6101c5816101b2565b81146101d057600080fd5b50565b6000813590506101e2816101bc565b92915050565b6000602082840312156101fe576101fd6101ad565b5b600061020c848285016101d3565b91505092915050565b7f4e487b7100000000000000000000000000000000000000000000000000000000600052601160045260246000fd5b600061024f826101b2565b915061025a836101b2565b925082820390508181111561027257610271610215565b5b92915050565b6000610283826101b2565b915061028e836101b2565b92508282019050808211156102a6576102a5610215565b5b9291505056fea264697066735822122029cfb92d918959b37b7b532f90660c4763ed5054d88aca3423381cca7d808af864736f6c63430008130033",
  "immutableReferences": {},
  "source": "// SPDX-License-Identifier: MIT\npragma solidity >=0.4.22 <0.9.0;\n\ncontract Funder{\n  mapping(address=>uint) private funders;\n  receive() external payable{\n    \n  }\n  function transfer()external payable{\n    funders[msg.sender]+=msg.value;\n  }\n  function withdraw(uint withdra)external{\n    require(withdra<=funders[msg.sender]);\n    funders[msg.sender]-=withdra;\n    payable(msg.sender).transfer(withdra);\n  }\n}",
  "sourcePath": "/home/satya/Desktop/HeLl0/DAPP/daap2r2/contracts/SimpleStorage.sol",
  "compiler": {
    "name": "solc",
    "version": "0.8.19+commit.7dd6d404.Emscripten.clang"
  },
  "schemaVersion": "3.4.13",
  "updatedAt": "2023-04-24T17:29:17.431Z",
  "networkType": "ethereum",
  "devdoc": {
    "kind": "dev",
    "methods": {},
    "version": 1
  },
  "userdoc": {
    "kind": "user",
    "methods": {},
    "version": 1
  }
}